S01600003878385F646F745F6D61747269782E737265638C
S113000045C0000060C000005EC000005CC000008D
S11300105AC0000058C0000056C0000054C0000080
S113002052C0000050C000004EC000004CC0000090
S11300304AC0000048C0000046C0000044C00000A0
S113004043C0000040C000003EC000003CC00000AF
S11300503AC0000038C0000036C0000034C00000C0
S113006032C0000030C000002EC000002CC00000D0
S11300702AC0000028C0000026C0000024C00000E0
S113008022C0000020C000001EC0000011241FBEBA
S1130090CFEFD0E1DEBFCDBF11E0A0E0B1E0E4EDF1
S11300A0F2E000E00BBF02C007900D92A43EB1073E
S11300B0D9F721E0A4EEB1E001C01D92AA3EB20737
S11300C0E1F7D8D005C19CCF1F920F920FB60F92C3
S11300D011242F933F934F938F939F9386E082BF76
S11300E02091E6013091E7012F5F3F4F3093E70104
S11300F02093E6018091E4019091E50101969093AB
S1130100E5018093E401283E33403CF01092E7017E
S11301101092E60121E02093E901863991053CF033
S11301201092E5011092E40181E08093E8019F912F
S11301308F914F913F912F910F900FBE0F901F9071
S1130140189584E083BF86E082BF81E087BF08956D
S11301500F931F93CF93DF93EC018B0160E03AC0C0
S1130160E72FF0E081E090E0072E02C0880F991F8E
S11301700A94E2F78BBBCE018E0F9F1FDC012C91FA
S113018030E0A901062E02C0440F551F0A94E2F77D
S1130190E00FF11F9081E8E0F0E0E61BF109292F60
S11301A030E002C035952795EA95E2F7240F25BB88
S11301B08FE99FE00197F1F700C000007F5F01C065
S11301C070E0783068F28091E8018823C9F31092D6
S11301D0E8016F5F6830B8F3DF91CF911F910F9101
S11301E008950F931F93CF93DF93EC01062F10E034
S11301F02AC011110EC0688170E0660F771F660F68
S1130200771F660F771F60507F4F80ED91E0A0DF6E
S113021019C0FE01E10FF11D608170E0660F771FC8
S1130220660F771F660F771F60507F4F319780816D
S113023090E0880F991F880F991F880F991F80508D
S11302409F4F86DF1F5F1017A0F2C00FD11D2197AB
S1130250888190E0880F991F880F991F880F991F34
S113026060ED71E080509F4F73DFDF91CF911F915C
S11302700F910895CF93DF93CDB7DEB72C970FB6C8
S1130280F894DEBF0FBECDBF8FEF8ABB87BB84BBA4
S113029088BB57DF78948CE0E8EDF1E0DE0111963D
S11302A001900D928A95E1F780E00AC0E1E0F0E068
S11302B0EC0FFD1FE80FF11D9081915490838F5F27
S11302C08C30A0F36CE070E0CE0101968ADFFACFA7
S10702D0F894FFCFCC
S11302D4FFE7DBBDBD81BDBDFF83BDBD83BDBD8364
S11302E4FFE1DFBFBFBFDFE1FF87BBBDBDBDBB8790
S11302F4FF81BFBF81BFBF81FF81BFBF81BFBFBFBC
S1130304FFE1DFBFB1BDDDE1FFBDBDBD81BDBDBD4D
S1130314FF81E7E7E7E7E781FFE1FBFBFBBBDBE703
S1130324FFBDBBB78FB7BBBDFFBFBFBFBFBFBF81DF
S1130334FFBD99A5BDBDBDBDFFBD9DADB5B9BDBDD9
S1130344FFE7DBBDBDBDDBE7FF83BDBDBD83BFBF31
S1130354FFE7DBBDBDDBE7F9FF81BDBDBD83B7BBF3
S1130364FFC1BFBFC3FDFD83FF81E7E7E7E7E7E71D
S1130374FFBDBDBDBDBDBDC3FFBDBDBDBDDBDBE7B5
S1130384FFBDBDBDA5A5A5DBFFBDBDBDC3BDBDBD35
S1130394FFBDBDBDDBE7E7E7FF81FDFBF7EFDF81D1
S11303A4FFFFFFFFFFFFFFFF4D48495645464F52ED
S10703B4455645520F
S9030000FC
