S01300005344636172645F746573742E73726563C1
S113000045C0000058C0000056C0000054C00000A5
S113001052C0000050C000004EC000004CC00000A0
S11300204AC0000048C0000046C0000044C00000B0
S113003042C0000040C000003EC000003CC00000C0
S11300403AC0000038C0000036C0000034C00000D0
S113005032C0000030C000002EC000002CC00000E0
S11300602AC0000028C0000026C0000024C00000F0
S113007022C0000020C000001EC000001CC0000000
S11300801AC0000018C0000016C0000011241FBED2
S1130090CFEFD0E1DEBFCDBF13E0A0E0B1E0E6ECEE
S11300A0F6E000E00BBF02C007900D92A237B10743
S11300B0D9F711D206C3A4CF87B3876087BB87B3B0
S11300C0886087BB83E58DB908958FB9779BFECF90
S11300D08FB10895CF9388B38E7F88BB8FE99FE05B
S11300E00197F1F700C00000C0E003C08FEFEDDF1F
S11300F0CF5FCA30D8F388B3816088BB8FEFE5DF68
S1130100CF910895FF920F931F93CF93DF93D42F32
S1130110152F062FF72EC22F8064D7DF8F2DD5DF42
S1130120802FD3DF812FD1DF8D2FCFDF8C2F816004
S1130130CCDFDF91CF911F910F91FF900895CF9362
S1130140C0E003C0CF5FC93020F48FEFBEDF8F3F24
S1130150C9F3CF910895CF938FEFB7DF88B38E7F24
S113016088BB8FEFB2DF24E940E050E0BA0180E0C1
S1130170C9DFE5DFC82F8FEFA8DF88B3816088BBB4
S11301808FEFA3DF8C2FCF910895CF93DF93EC01F2
S1130190D6DF8883823060F48FEF97DF89838FEF17
S11301A094DF8A838FEF91DF8B838FEF8EDF8C83D5
S11301B0DF91CF910895CF93DF93EC018FEF85DF2B
S11301C088B38E7F88BB8FEF80DF26E84AEA51E050
S11301D060E070E088E096DFCE01D7DF8FEF75DF57
S11301E088B3816088BB8FEF70DFDF91CF91089572
S11301F0CF93DF93EC018FEF68DF88B38E7F88BBEA
S11302008FEF63DF20E040E050E0BA018AE37ADF59
S1130210CE01BBDF8FEF59DF88B3816088BB8FEFDE
S113022054DFDF91CF910895CF938FEF4EDF88B3E2
S11302308E7F88BB8FEF49DF20E040E050E0BA01B9
S113024087E360DF7CDFC82F8FEF3FDF88B38160F7
S113025088BB8FEF3ADF8C2FCF910895CF938FEF28
S113026034DF88B38E7F88BB8FEF2FDF20E040E040
S113027050E060E070E489E245DF61DFC82F8FEF72
S113028024DF88B3816088BB8FEF1FDF8C2FCF9171
S11302900895FF920F931F93CF93DF9300D000D064
S11302A01F92CDB7DEB716DF00E003C00F5F0B303F
S11302B050F551DF182F89838130C1F7CE010196A3
S11302C07ADFF98081E0F81223C08D818A3AE9F45B
S11302D000E00536E0F4A8DF8983823010F4BEDF45
S11302E089838FE39CE90197F1F700C000000F5F59
S11302F019811111EECFCE0101967ADF8A8188230C
S11303003CF01F2D05C011E003C01F2D01C01F2D9F
S1130310812F0F900F900F900F900F90DF91CF913E
S11303201F910F91FF9008954F925F926F927F9269
S1130330AF92BF92CF92DF92EF92FF920F931F93EF
S1130340CF93DF932B013C01EA0159018FEFF901AF
S11303508083BBDE88B38E7F88BB8FEFB6DE20E060
S1130360B301A20181E1CEDEEADEC82EFFEF8F13D6
S113037008C02AC08FEFA9DED82E8FEFD81619F047
S113038008C000E010E00F5F1F4F0B31E6E01E07CE
S113039089F7FEEFDF1216C00BC07E018FEFE81A5B
S11303A0F80A8FEF92DE88830F5F1F4FE70102C0C8
S11303B000E010E00115E2E01E0778F38FEF85DE20
S11303C08FEF83DEF501D0828FEF7FDE88B381600B
S11303D088BB8FEF7ADE8C2DDF91CF911F910F9127
S11303E0FF90EF90DF90CF90BF90AF907F906F9091
S11303F05F904F9008958F929F92AF92BF92DF9239
S1130400EF92FF920F931F93CF93DF934B015C0105
S11304108A0179018FEFF901808357DE88B38E7FDB
S113042088BB8FEF52DE20E0B501A40188E16ADECB
S113043086DED82E811123C08EEF47DEC0E0D0E0E7
S113044006C0F801EC0FFD1F80813FDE2196C11527
S1130450F2E0DF07B0F307C09FEFF70190838F71DD
S1130460853069F405C08FEF30DE8F3FE1F3F4CFC0
S113047085E0F70180838FEF28DE8823E1F38FEF97
S113048024DE88B3816088BB8FEF1FDE8D2DDF9162
S1130490CF911F910F91FF90EF90DF90BF90AF909D
S11304A09F908F900895CF93C82F83FF03C082E954
S11304B092E0D7D0C2FF03C086EA92E0D2D0C1FF57
S11304C003C088EB92E0CDD0C0FF03C083EC92E080
S11304D0C8D0CF910895CF93DF93CDB7DEB7C15085
S11304E0D4400FB6F894DEBF0FBECDBF87E690E0D0
S11304F0C4D0E2DD2FEF81EE94E0215080409040A3
S1130500E1F700C00000C5DE882321F08BEC92E007
S1130510A8D0FFCF88EE92E0A4D09E012F5F3B4F7E
S1130520AE014F5F5F4F60E072E080E090E0FCDE80
S1130530823038F5CF5FDB4F8881C150D4408E3F85
S113054001F513C0C8018F719927892B19F48EE323
S113055093E087D0E1E0F0E0EC0FFD1FE00FF11F26
S1130560808198D00F5F1F4F02C000E010E001159A
S113057022E0120738F38EE393E073D080E090E03A
S11305800DC08DEF92E06DD0F9CFE1E0F2E0EC0F19
S1130590FD1FE80FF91F25E520830196811522E050
S11305A0920798F39E012F5F3B4FAE014F5F5D4F63
S11305B060E072E080E090E01EDF83E193E051D0E0
S11305C09E012F5F3B4FAE014F5F5F4F60E072E0D3
S11305D080E090E0A9DE823028F5CF5FDB4F888190
S11305E0C150D4408E3FF1F413C0C8018F719927D4
S11305F0892B19F48EE393E034D0E1E0F0E0EC0FC2
S1130600FD1FE00FF11F808145D00F5F1F4F02C017
S113061000E010E0011582E0180738F38EE393E060
S113062020D003C08DEF92E01CD0CF5FDB4F8881D8
S1130630C150D440982F907F51F480E493E011D0BE
S1130640CF5FDB4F8881C150D4402DDF05C08F3F81
S113065019F48EE493E005D0FFCF5D9BFECF8CB9F7
S11306600895CF93DF93EC0102C02196F6DF8881D1
S11306708111FBCFDF91CF91089589B990939000B8
S11306808AB188618AB98FE693E0EBDF87E593E06E
S1130690E8CF0895CF93282F22952F70982F9F701D
S11306A02A3010F087E301C080E3820F9A3010F003
S11306B0C7E301C0C0E3C90FD0DF8C2FCEDFCF91D9
S10906C00895F894FFCF39
S11306C6094572726F723A204D5342203D20310A19
S11306D60009436172642052656164790A00095015
S11306E66172616D65746572204572726F720A007B
S11306F60941646472657373204572726F720A00ED
S11307060945726173652053657175656E6365206D
S11307164572726F720A0009435243204572726F22
S1130726720A0009496C6C6567616C20436F6D6DD4
S1130736616E640A000945726173652052657365CA
S113074674204572726F720A0009496E2049646CFE
S1130756652053746174650A0009436F6D6D616E9B
S1130766642056657273696F6E3A200009566F6C81
S1130776746167652041636365707465643A20003B
S1130786322E372D332E36560A004C4F5720564FED
S11307964C544147450A0052455345525645440A6E
S11307A6004E4F5420444546494E45440A000945E7
S11307B663686F3A2000094361726420506F77655D
S11307C672205570205374617475733A2000524533
S11307D64144590A000943435320537461747573A1
S11307E63A2000300A00425553590A000956444437
S11307F62057696E646F773A2000322E372D322ED9
S1130806382C2000322E382D322E392C2000322E50
S1130816392D332E302C2000332E302D332E312C0F
S11308262000332E312D332E322C2000332E322D40
S1130836332E332C2000332E332D332E342C20002C
S1130846332E342D332E352C2000332E352D332ED6
S113085636000944617461206F7574206F662072D6
S1130866616E67650A00094361726420454343204B
S11308766661696C65640A00094343204572726FB8
S1130886720A00094572726F720A004572726F72BB
S113089620696E697469616C697A61696E6720534F
S11308A64420434152440A00534420436172642065
S11308B6696E697469616C697A65640A0045727265
S11308C66F722072656164696E6720736563746F05
S11308D6720A000A0A41465445522057524954495D
S11308E64E4720544F20534443415244206F6E20B8
S11308F6307830312076616C75652E2E2E0A0A000A
S11309064572726F7220746F6B656E3A0A00546991
S11309166D656F75740A005B494E464F5D205541FF
S1130926525420696E697469616C697A6564210A36
S10509360D00AE
S9030000FC
