:100000001EC100003AC1000038C1000036C1000026
:1000100034C1000032C1000030C100002EC1000018
:100020002CC100002AC1000028C1000026C1000028
:1000300024C1000022C1000020C100001EC1000038
:100040001DC100001AC1000018C1000016C1000047
:1000500014C1000012C1000010C100000EC1000058
:100060000CC100000AC1000008C1000006C1000068
:1000700004C1000002C1000000C10000FEC0000079
:10008000FCC00000FAC00000F8C00000084AD73BDE
:100090003BCE016E84BCBFFDC12F3D6C74319ABD57
:1000A00056833DDA3D00C77F11BED9E4BB4C3E917B
:1000B0006BAAAABE000000803F07634236B79BD8F8
:1000C000A71A39685618AEBAAB558C1D3CB7CC5739
:1000D00063BD6DEDFD753EF6177231BF0000008007
:1000E0003F08000000BE922449123EABAAAA2ABED5
:1000F000CDCCCC4C3E00000080BEABAAAAAA3E00EC
:10010000000000BF000000803F0000000000084128
:1001100078D3BB4387D1133D190E3CC3BD4282AD9A
:100120002B3E68EC8276BED98FE1A93E4C80EFFF72
:10013000BE01C4FF7F3F0000000000006E616E0042
:10014000696E660000407A10F35A00A0724E1809DA
:100150000010A5D4E80000E87648170000E40B542E
:10016000020000CA9A3B000000E1F50500008096FD
:100170009800000040420F000000A086010000002F
:10018000102700000000E8030000000064000000E9
:1001900000000A00000000000100000000002C76B2
:1001A000D888DC674F0823DFC1DFAE59E1B1B796CD
:1001B000E5E3E453C63AE651997696E8E6C284262A
:1001C000EB898C9B62ED407C6FFCEFBC9C9F40F206
:1001D000BAA56FA5F490055A2AF75C936B6CF96782
:1001E0006DC11BFCE0E40D47FEF520E6B500D0ED47
:1001F000902E0300943577050080841E08000020AF
:100200004E0A000000C80C333333330F986E12834C
:100210001141EF8D2114893BE65516CFFEE6DB1820
:10022000D1844B381BF77C1D901DA4BBE4242032E5
:1002300084725E228100C9F124ECA1E53D271124DE
:100240001FBECFEFD0E1DEBFCDBF12E0A0E0B1E036
:10025000EAE9F4E200E00BBF02C007900D92A6327B
:10026000B107D9F722E0A6E2B2E001C01D92A238A0
:10027000B207E1F724D00C944B12C2CE1F920F921A
:100280000FB60F9211248F9386E082BF80912602D1
:100290008F5F809326028A3028F01092260281E038
:1002A000809327028F910F900FBE0F901F9018958B
:1002B00084E083BF86E082BF81E087BF0895ECE7DA
:1002C000F2E08EE091E09383828380E091E091837D
:1002D0008083EEDF789480E091EE1AD7DAD4A4D64A
:1002E0004BD088E054D088E0A1D00BD3FDD48091CE
:1002F00027028130E1F7109227022FE832EC45E720
:100300005FE36AE077ED83E29CE381D4E09028012B
:10031000F0902901209158023091590240915A02DF
:1003200050915B0260914C0270914D0280914E029F
:1003300090914F0203E050D5DACFCF93DF93D82FBF
:10034000C62F7CD680ED94D68D2FB0D68C2FAED60E
:10035000CBD6DF91CF910895CF93C82F6FD680ED84
:1003600087D68C2FA3D677D681ED91D6AED6C82F5F
:10037000BBD68C2FCF91089560E08BE6DEDF65E081
:100380008AE1DBDF84E491E00C94BD110895CF9302
:10039000C82F682F8BE1D1DFC830B1F018F4CC231F
:1003A00031F039C0C031E9F0C83141F134C080E0EA
:1003B00090E0A3E0B3E480936A0290936B02A09371
:1003C0006C02B0936D022CC080E090E0A3E8B2E430
:1003D00080936A0290936B02A0936C02B0936D02BB
:1003E0001FC083E393E3A3E0B2E480936A02909397
:1003F0006B02A0936C02B0936D0212C083E393E38F
:10040000A3E8B1E480936A0290936B02A0936C021C
:10041000B0936D0205C088E691E00E94BD11FFCF48
:100420008FE891E00E94BD11CF910895CF93C82F1E
:10043000682F8CE182DFC83081F018F4CC2331F0D2
:1004400021C0C03189F0C831B1F01CC080E090E417
:1004500090935D0280935C021AC080E090E29093DA
:100460005D0280935C0213C080E090E190935D0296
:1004700080935C020CC080E098E090935D028093D2
:100480005C0205C088E691E00E94BD11FFCF84EBBD
:1004900091E00E94BD11CF9108954F925F926F92AB
:1004A0007F928F929F92AF92BF92CF92DF92EF9204
:1004B000FF92CF93DF9300D000D000D0CDB7DEB74E
:1004C00069837A838B839C8383E446DF282F30E023
:1004D000922F88279E838D8384E43EDF2D813E8189
:1004E000280F311D309369022093680285E434DFC0
:1004F000282F30E0922F88279E838D8386E42CDF7F
:100500002D813E81280F311D30935F0220935E02C2
:1005100087E422DF282F30E0922F88279E838D8367
:1005200088E41ADF2D813E81280F311D6091680219
:1005300070916902E0E4F2E086819781681B790B93
:100540007093690260936802A0905E02B0905F02AF
:1005500080859185A81AB90AB0925F02A0925E02C6
:1005600082859385281B390B3E832D8330937B0234
:1005700020937A02C0906A02D0906B02E0906C02E5
:10058000F0906D02072E000C880B990B03D7A70182
:1005900096016AD62B013C0160936E0270936F0244
:1005A0008093700290937102B501BB0C880B990B7C
:1005B000F1D6A701960158D64B015C0160937202F7
:1005C0007093730280937402909375022D813E8123
:1005D000B901330F880B990BDDD6A701960144D6DC
:1005E0006B017C01609364027093650280936602E4
:1005F0009093670229813A814B815C81C301B201EA
:10060000A9D79B01AC0160913C0270913D028091A1
:100610003E0290913F0298D560933C0270933D0258
:1006200080933E0290933F0229813A814B815C8105
:10063000C501B4018FD79B01AC0160913802709164
:10064000390280913A0290913B027ED56093380244
:100650007093390280933A0290933B0229813A8148
:100660004B815C81C701B60175D79B01AC016091DC
:10067000340270913502809136029091370264D530
:100680006093340270933502809336029093370260
:1006900026960FB6F894DEBF0FBECDBFDF91CF9187
:1006A000FF90EF90DF90CF90BF90AF909F908F9092
:1006B0007F906F905F904F900895CF93DF9383E486
:1006C0004BDEC82FD0E0DC2FCC2784E445DEC80FFA
:1006D000D11DD0936302C093620285E43DDEC82F32
:1006E000D0E0DC2FCC2786E437DEC80FD11DD093B5
:1006F0005702C093560287E42FDEC82FD0E0DC2FCC
:10070000CC2788E429DEC80FD11DD0937902C0938D
:100710007802DF91CF9108954F925F926F927F920E
:10072000AF92BF92CF92DF92EF92FF920F931F93FF
:10073000CF93DF938BE310DEC82FD0E0DC2FCC27E4
:100740008CE30ADEC80FD11DD0935102C093500232
:100750008DE302DEC82FD0E0DC2FCC278EE3FCDD5A
:10076000C80FD11DD0936102C09360028FE3F4DD06
:10077000C82FD0E0DC2FCC2780E4EEDDC80FD11DE0
:100780006091500270915102E0E4F2E08081918129
:10079000681B790B709351026093500200916002C4
:1007A0001091610282819381081B190B10936102E1
:1007B0000093600284819581C81BD90BD093770286
:1007C000C0937602AA24BB24A61AB70AB801012E48
:1007D000000C880B990BDED520E030E040E050E4BF
:1007E0001CD76B017C01BE010D2E000C880B990BF0
:1007F000D1D520E030E040E050E40FD72B013C01A0
:10080000A3019201C701B6019FD457D76B017C01A8
:10081000B501BB0C880B990BBDD5A701960124D55A
:10082000F7D4C0903401D0903501E0903601F090BB
:100830003701A70196018ED660932C0270932D028A
:1008400080932E0290932F02C801BE010E941B10BC
:10085000072E000C880B990B9DD5DAD49B01AC01B7
:10086000C701B60177D6609330027093310280934E
:1008700032029093330210922802109229021092B1
:100880002A0210922B02DF91CF911F910F91FF90BE
:10089000EF90DF90CF90BF90AF907F906F905F9080
:1008A0004F900895CF93DF938BE356DDC82FD0E0B0
:1008B000DC2FCC278CE350DDC80FD11DD093630211
:1008C000C09362028DE348DDC82FD0E0DC2FCC2737
:1008D0008EE342DDC80FD11DD0935702C09356025C
:1008E0008FE33ADDC82FD0E0DC2FCC2780E434DD65
:1008F000C80FD11DD0937902C0937802DF91CF91B8
:1009000008954F925F926F927F928F929F92AF92D3
:10091000BF92CF92DF92EF92FF92CF93DF93CDB74A
:10092000DEB72E970FB6F894DEBF0FBECDBF1E8682
:100930001D8619861A861B861C861D821E821F82B2
:10094000188619821A821B821C82C12CD12C760136
:10095000812C912C5401412C512C320168C0ADDE08
:100960008091620290916302092E000CAA0BBB0BCE
:10097000480E591E6A1E7B1E8091560290915702A6
:10098000092E000CAA0BBB0B880E991EAA1EBB1EBB
:100990008091780290917902092E000CAA0BBB0B72
:1009A000C80ED91EEA1EFB1E7DDF80916202909167
:1009B0006302092E000CAA0BBB0B29813A814B81E3
:1009C0005C81280F391F4A1F5B1F29833A834B83A1
:1009D0005C838091560290915702092E000CAA0B5D
:1009E000BB0B2D813E814F815885280F391F4A1F2F
:1009F0005B1F2D833E834F835887809178029091AF
:100A00007902092E000CAA0BBB0B29853A854B8570
:100A10005C85280F391F4A1F5B1F29873A874B8740
:100A20005C874D855E854F5F5F4F5E874D878D8507
:100A30009E850A970CF493CFC301B2012AE030E0FF
:100A400040E050E00E942E1030934702209346026F
:100A5000C501B4012AE030E040E050E00E942E10D1
:100A60003093490220934802C701B6012AE030E0E2
:100A700040E050E00E942E1030934B0220934A0237
:100A800069817A818B819C812AE030E040E050E0EE
:100A90000E942E10E0E4F2E0318320836D817E819C
:100AA0008F8198852AE030E040E050E00E942E10CF
:100AB000309343022093420269857A858B859C8519
:100AC0002AE030E040E050E00E942E1080915C026D
:100AD00090915D02281B390B30934502209344020C
:100AE0008AED91E00E94BD112E960FB6F894DEBFFC
:100AF0000FBECDBFDF91CF91FF90EF90DF90CF90F1
:100B0000BF90AF909F908F907F906F905F904F902D
:100B100008954F925F926F927F928F929F92AF92C1
:100B2000BF92CF92DF92EF92FF9269017A01B5DC1A
:100B3000F3DD60913C0270913D0280913E02909104
:100B40003F02A701960106D52B013C01A7019601A2
:100B500060E070E080E89FE3F6D24B015C012091F9
:100B60003002309131024091320250913302F2D47E
:100B70009B01AC01C301B201E7D260934C027093B8
:100B80004D0280934E0290934F0220913802309193
:100B9000390240913A0250913B02C701B601DAD4C2
:100BA0006B017C0120912C0230912D0240912E028C
:100BB00050912F02C501B401CDD49B01AC01C701F6
:100BC000B601C2D2609358027093590280935A02C0
:100BD00090935B028091340290913502A09136028D
:100BE000B09137028093520290935302A093540223
:100BF000B0935502FF90EF90DF90CF90BF90AF90F1
:100C00009F908F907F906F905F904F900895CF93BB
:100C1000DF937FDF80914F028F9380914E028F93FD
:100C200080914D028F9380914C028F93C3E0D2E06C
:100C3000DF93CF930E94AA1180915B028F938091E2
:100C40005A028F93809159028F93809158028F930B
:100C5000DF93CF930E94AA11809155028F938091C8
:100C600054028F93809153028F93809152028F93FD
:100C700087E092E09F938F930E94AA118DB79EB751
:100C800042960FB6F8949EBF0FBE8DBFDF91CF91F5
:100C9000089587B3876087BB81E58DB908958FB9C3
:100CA000779BFECF089588B38F7D88BB089588B366
:100CB000806288BB0895F7DF8FEAF1DFF8CF0895EF
:100CC000F2DF80EAECDF80E6EADFF1CF0895EBDFC8
:100CD00085E2E5DF80E0E3DF80E0E1DF8FE5DFDF75
:100CE0008FE3DDDFE4CF089587B3806787BB88B3E8
:100CF000806388BBE0DFE4DFEADF83EC99E0019703
:100D0000F1F700C0000008950F931F93CF93DF9376
:100D1000082F162FD42FC22FC6DF85E2C0DF802F09
:100D2000BEDF812FBCDF8D2FBADF8C2FB8DFBFDF96
:100D3000DF91CF911F910F910895CF93C82FB3DF0B
:100D400086E2ADDF8C2FABDFB2DFCF910895BF928B
:100D5000CF92DF92EF92FF920F931F93CF93DF9387
:100D6000B82EC62ED42EE22E80E090E0E6DFC80139
:100D70008827987FF92EF694F694E801C07ED77004
:100D8000D695C795D295C295CF70CD27DF70CD2768
:100D90000F71000F88DF82E282DF8B2D80DF8C2DC8
:100DA0007EDF8D2D7CDF8E2D7ADF8F2D78DF8C2FEF
:100DB00076DF802F74DF80E072DF80E070DF80E01C
:100DC0006EDF75DFDF91CF911F910F91FF90EF9054
:100DD000DF90CF90BF9008952F923F924F925F92F5
:100DE0006F927F928F929F92AF92BF92CF92DF923B
:100DF000EF92FF920F931F93CF93DF9300D000D019
:100E00001F92CDB7DEB72B013C0149015A010D837A
:100E1000170160913C0170913D0180913E019091DC
:100E20003F018AD2162F609140017091410180915B
:100E300042019091430180D2862F202F210F402F15
:100E4000460F612F601B801B5FDF20E030E048EC25
:100E500052E4C301B20108D24090380150903901E8
:100E600060903A0170903B01A301920173D32091ED
:100E7000400130914101409142015091430164D1C0
:100E80006B017C01609340017093410180934201AA
:100E900090934301AD810A2F10E06FE570E0601B75
:100EA000710B072E000C880B990B74D269837A831F
:100EB0008B839C839B01AC01C701B60140D31816FC
:100EC0006CF489819A81AB81BC81809340019093BD
:100ED0004101A0934201B09343011BC0B801012E10
:100EE000000C880B990B56D29B01AC01C701B601CF
:100EF000B7D1882374F4AD816A2F70E080E090E070
:100F000047D26093400170934101809342019093D6
:100F10004301C501B401905820E030E048EC52E4B0
:100F2000A3D19B01AC01C301B20114D320913C01B8
:100F300030913D0140913E0150913F0105D16B013F
:100F40007C0160933C0170933D0180933E0190933E
:100F50003F016FE370E0601B710B072E000C880BE4
:100F6000990B18D24B015C019B01AC01C701B60182
:100F7000E6D218164CF480923C0190923D01A0926A
:100F80003E01B0923F011AC0B801110F880B990BB6
:100F900001D29B01AC01C701B60162D1882374F470
:100FA000BD816B2F70E080E090E0F2D160933C0156
:100FB00070933D0180933E0190933F0160913C010D
:100FC00070913D0180913E0190913F01B5D1162F66
:100FD00060914001709141018091420190914301E3
:100FE000ABD1862F2D81210F4D81460F612F9D8121
:100FF000691B8101891BABDE0F900F900F900F9042
:101000000F90DF91CF911F910F91FF90EF90DF90A4
:10101000CF90BF90AF909F908F907F906F905F9098
:101020004F903F902F90089581B3816081BB81B331
:10103000826081BB8CE080937000089584EA809385
:101040007400809174008823E4F780917100887F98
:101050008830D9F7089584EA8093740080917400F1
:101060008823E4F780917100887F8031D9F7089553
:101070008093730084EC80937400809174008823C3
:10108000E4F780917100887F8831D9F708958093C3
:10109000730084EC80937400809174008823E4F7DB
:1010A00080917100887F8034D9F708958093730010
:1010B00084EC80937400809174008823E4F780911D
:1010C0007100887F8832D9F7089584E8809374008E
:1010D000809174008823E4F780917100887F8835BF
:1010E000D9F780917300089584E98093740008957E
:1010F0005D9BFECF8CB90895CF93DF93EC0102C0C6
:101100002196F6DF88818111FBCFDF91CF91089581
:101110009C0140E050E060E472E48FE090E09ED7F4
:101120002150310929B9309390008AB188618AB978
:1011300083E292E0E1DF8BE092E0DECF08955F9BF7
:10114000FECF8CB108955058BB27AA270ED0BDC141
:10115000AED130F0B3D120F031F49F3F11F41EF442
:101160007EC10EF4E095E7FB74C1E92FBFD180F397
:10117000BA17620773078407950718F071F49EF594
:10118000D7C10EF4E0950B2EBA2FA02D0B01B9019B
:1011900090010C01CA01A0011124FF27591B99F0ED
:1011A000593F50F4503E68F11A16F040A22F232FF9
:1011B000342F4427585FF3CF469537952795A79549
:1011C000F0405395C9F77EF41F16BA0B620B730BF0
:1011D000840BBAF09150A1F0FF0FBB1F661F771F61
:1011E000881FC2F70EC0BA0F621F731F841F48F416
:1011F000879577956795B795F7959E3F08F0B3CF9C
:101200009395880F08F09927EE0F97958795089585
:10121000DF93DD27B92FBF7740E85FE31616170687
:1012200048075B0710F4D92F8ED19F938F937F933C
:101230006F9381D2ECE8F0E015D147D12F913F9127
:101240004F915F9193D1DD2349F09058A2EA2AEDA6
:101250003FE049EC5FE3D0785D2787DFDF9135C160
:10126000D4D008F481E008950CD02FC127D140F0EC
:101270001ED130F021F45F3F19F0EBC0511159C17C
:10128000EEC034D198F39923C9F35523B1F3951BDC
:10129000550BBB27AA2762177307840738F09F5F97
:1012A0005F4F220F331F441FAA1FA9F333D00E2E06
:1012B0003AF0E0E830D091505040E695001CCAF773
:1012C00029D0FE2F27D0660F771F881FBB1F261738
:1012D00037074807AB07B0E809F0BB0B802DBF010B
:1012E000FF2793585F4F2AF09E3F510568F0B1C029
:1012F00020C15F3FECF3983EDCF3869577956795C8
:10130000B795F7959F5FC9F7880F911D96958795BB
:1013100097F90895E1E0660F771F881FBB1F6217DA
:1013200073078407BA0720F0621B730B840BBA0B98
:10133000EE1F88F7E0950895E1D088F09F5790F070
:10134000B92F9927B751A0F0D1F0660F771F881FEA
:10135000991F1AF0BA95C9F712C0B13081F0E8D0E0
:10136000B1E00895E5C0672F782F8827B85F39F07E
:10137000B93FCCF3869577956795B395D9F73EF449
:1013800090958095709561957F4F8F4F9F4F0895F1
:10139000E89409C097FB3EF490958095709561950F
:1013A0007F4F8F4F9F4F9923A9F0F92F96E9BB27C5
:1013B0009395F695879577956795B795F111F8CF41
:1013C000FAF4BB0F11F460FF1BC06F5F7F4F8F4FAC
:1013D0009F4F16C0882311F096E911C0772321F0A2
:1013E0009EE8872F762F05C0662371F096E8862F3A
:1013F00070E060E02AF09A95660F771F881FDAF791
:10140000880F9695879597F90895990F0008550FBD
:10141000AA0BE0E8FEEF16161706E807F907C0F07A
:1014200012161306E407F50798F0621B730B840B82
:10143000950B39F40A2661F0232B242B252B21F45C
:1014400008950A2609F4A140A6958FEF811D811DFC
:10145000089597F99F6780E870E060E008959FEF36
:1014600080EC0895DF93CF931F930F93FF92EF9239
:10147000DF927B018C01689405C0DA2EEF0176D0F3
:10148000FE01E894A5912591359145915591AEF3D2
:10149000EF016BDEFE019701A801DA9479F7DF9086
:1014A000EF90FF900F911F91CF91DF91089500244D
:1014B0000A941616170618060906089500240A94B9
:1014C00012161306140605060895092E0394000C3F
:1014D00011F4882352F0BB0F40F4BF2B11F460FFCE
:1014E00004C06F5F7F4F8F4F9F4F089557FD9058F7
:1014F000440F551F59F05F3F71F04795880F97FBD8
:10150000991F61F09F3F79F0879508951216130691
:101510001406551FF2CF4695F1DF08C016161706C0
:101520001806991FF1CF86957105610508940895F5
:10153000E894BB2766277727CB0197F9089565DFE5
:1015400008F48FEF08959B01AC0160E070E080E843
:101550009FE38ACE0BD0B9CFAADF28F0AFDF18F017
:10156000952309F076CF7BCF1124E3CFBFDFA0F323
:10157000959FD1F3950F50E0551F629FF001729F28
:10158000BB27F00DB11D639FAA27F00DB11DAA1F47
:10159000649F6627B00DA11D661F829F2227B00D94
:1015A000A11D621F739FB00DA11D621F839FA00D1F
:1015B000611D221F749F3327A00D611D231F849F6F
:1015C000600D211D822F762F6A2F11249F575040C6
:1015D0008AF0E1F088234AF0EE0FFF1FBB1F661F61
:1015E000771F881F91505040A9F79E3F510570F01A
:1015F00030CF9FCF5F3FECF3983EDCF38695779535
:101600006795B795F795E7959F5FC1F7FE2B880F14
:10161000911D9695879597F90895FA01EE0FFF1F92
:1016200030962105310599F16115710561F4803815
:10163000BFE39B0749F168949038810561F08038D9
:10164000BFEF9B0741F0992342F5FF3FE1053105CC
:10165000210511F1E8940894E795D901AA2329F40A
:10166000AB2FBE2FF85FD0F310C0FF5F70F4A695CC
:10167000E0F7F73950F019F0FF3A38F49F779F936D
:101680000CD00F9007FC905808953EF0E8CE60E033
:1016900070E080E89FE308954FE79F775F934F9353
:1016A0003F932F93CCD02F913F914F915F9152DF79
:1016B0004AC011F40EF4D3CE72C020DFD0F39923C8
:1016C000D9F3CEF39F57550B87FF77D00024A0E6C0
:1016D00040EA900180585695979528F4805C660FF3
:1016E000771F881F20F026173707480730F4621B42
:1016F000730B840B202931294A2BA6951794079444
:10170000202531254A2758F7660F771F881F20F0BC
:1017100026173707480730F4620B730B840B200D34
:10172000311D411DA09581F7B901842F9158880F73
:101730009695879508959B01AC010CCF19F40EF096
:1017400088CEF6CE8CCEDADEC8F39638C0F707F82E
:101750000F92E8942BE33AEA48EB5FE709DF0F9238
:101760000F920F924DB75EB70F92A9D0E9EBF0E060
:1017700079DE4F915F91EF91FF91E595EE1FFF1F8D
:1017800049F0FE57E0684427EE0F441FFA95E1F751
:101790004195550B1BD00F9007FED5CE08959F3F66
:1017A00031F0915020F4879577956795B795880F1C
:1017B000911D9695879597F9089591505040660F21
:1017C000771F881FD2F7089544CEE9CF97DEE8F35C
:1017D0009923D9F3940F511DBBF39150504094F0CD
:1017E00059F0882332F0660F771F881F91505040C0
:1017F000C1F79E3F510544F7880F911D9695879537
:1018000097F908955F3FACF0983E9CF0BB27869512
:1018100077956795B79508F4B1609395C1F7BB0FBD
:1018200058F711F460FFE8CF6F5F7F4F8F4F9F4FE6
:10183000E3CF7FCE0EF0B3CF12CE68940ACE5EDE39
:10184000C8F39923D1F3C6F3DF93CF931F930F937C
:10185000FF92C92FDD2788232AF02197660F771F73
:10186000881FDAF720E030E040E85FEB9FE388393B
:1018700020F0803E30F021968F7766DCE1EEF0E0DC
:1018800003C062DCEEE0F1E0EDDD8B01BE01EC01B6
:10189000FB2E6F5771097595771F880B990B7ADDB1
:1018A00028E132E741E35FE361DEAF2D9801AE014D
:1018B000FF900F911F91CF91DF9157DC06CEFA0177
:1018C000DC01AA0FBB1F9B01AC01BF5728F42227E4
:1018D0003327442750781FC0B75188F4AB2F00241A
:1018E000469537952795011CA395D2F3002069F002
:1018F000220F331F441FB395DAF30DD024CC61308F
:101900007105A0E88A07B94630F49B01AC0166274F
:10191000772788279078309621F02083318342837F
:10192000538308952F923F924F925F926F927F92CE
:101930008F929F92AF92BF92CF92DF92EF92FF92DF
:101940000F931F93CF93DF93CDB7DEB760970FB69A
:10195000F894DEBF0FBECDBF7C011B016A01FC0104
:1019600017821682838181FF2AC39E012F5F3F4F1A
:101970003901F7019381F10193FD859193FF8191E5
:101980001F01882309F417C3853239F493FD85912B
:1019900093FF81911F01853231F4B70190E09ED40D
:1019A00056016501E6CF10E0512C912CFFE1F915AD
:1019B000D8F08B3279F038F4803279F08332A1F4A8
:1019C000F92DF0612EC08D3261F0803369F4292D3C
:1019D00021602DC0392D3260932E892D8460982E80
:1019E0002AC0E92DE86015C097FC2DC020ED280F16
:1019F0002A3088F496FE06C03AE0139F200D112489
:101A0000122F19C08AE0589E200D1124522EE92D64
:101A1000E0629E2E10C08E3231F496FCCCC2F92DBD
:101A2000F0649F2E08C08C3621F4292D2068922E58
:101A300002C0883641F4F10193FD859193FF8191B5
:101A40001F018111B3CF9BEB980F933020F4992D98
:101A50009061805E07C09BE9980F933008F059C1F0
:101A6000992D9F7E96FF16E09F73992E853619F467
:101A70009064992E08C0863621F4392F3068932E51
:101A800002C01111115097FE07C01C3350F44424BA
:101A90004394410E27E00BC0183038F027E017E0E0
:101AA00005C027E09CE3492E02C0212F412C56019E
:101AB00084E0A80EB11CF60160817181828193815E
:101AC000042DA3011DD36C01F981FC87F0FF02C036
:101AD000F3FF06C091FC06C092FE06C000E205C0FE
:101AE0000DE203C00BE201C000E08C858C7019F0A0
:101AF000011143C280C297FE10C04C0CFC85F4FF5C
:101B000004C08A81813309F44A94141474F528E0DE
:101B1000241578F588E0482E2CC096FC2AC0812F29
:101B200090E08C159D059CF03CEFC3163FEFD3066B
:101B300074F0892D8068982E0AC0E2E0F0E0EC0F86
:101B4000FD1FE10FF11D8081803319F41150111137
:101B5000F4CF97FE0EC044244394410E812F90E0B1
:101B6000C816D9062CF41C1904C04424439401C09F
:101B700010E097FE06C01C141D0434F4C601019643
:101B800005C085E090E002C081E090E0011101967F
:101B9000112331F0212F30E02F5F3F4F820F931F31
:101BA000252D30E08217930714F4581A01C0512CE8
:101BB000892D897041F4552031F0B70180E290E021
:101BC0008DD35A94F8CF002321F0B701802F90E0F5
:101BD00085D393FC08C0552031F0B70180E390E035
:101BE0007DD35A94F8CF97FE4AC04601D7FE02C073
:101BF000812C912CC60188199909F301E80FF91F6E
:101C0000FE87ED87960124193109388B2F87012F24
:101C100010E01195019511093FEF8316930621F409
:101C2000B7018EE290E05AD3C814D9044CF08F85E6
:101C300098898815990524F4ED85FE85818101C078
:101C400080E3F1E08F1A91082D853E852F5F3F4F8D
:101C50003E872D878016910624F0B70190E03ED391
:101C6000DBCFC814D90441F49A81963320F495331C
:101C700019F43C8534FF81E3B70190E048C08A81C4
:101C8000813319F09C859F7E9C87B70190E026D315
:101C9000111105C094FC16C085E690E015C0B7018F
:101CA0008EE290E01BD31E5F82E001E0080FF3019B
:101CB000E80FF11D8081B70190E010D3802F011350
:101CC000F4CFE8CF85E490E0B70108D3D7FC06C095
:101CD000C114D10441F4EC85E4FF05C0D194C19452
:101CE000D1088DE201C08BE2B70190E0F7D280E32A
:101CF0002AE0C216D1042CF08F5FFAE0CF1AD10887
:101D0000F7CFB70190E0EAD2B701C601C096E6D29C
:101D100049C1833631F0833779F0833509F052C0F9
:101D20001FC0560132E0A30EB11CF60180818983E9
:101D300001E010E0630111C05601F2E0AF0EB11CEA
:101D4000F601C080D18096FE03C0612F70E002C012
:101D50006FEF7FEFC601B7D28C01F92DFF7713C06B
:101D6000560122E0A20EB11CF601C080D18096FE81
:101D700003C0612F70E002C06FEF7FEFC60198D201
:101D80008C01F92DF0689F2EF3FD18C0852D90E091
:101D90000817190798F4B70180E290E09FD25A948F
:101DA000F5CFF60197FC859197FE81916F01B70100
:101DB00090E094D251105A94015011090115110567
:101DC00081F7F0C0843611F0893659F5560197FE37
:101DD00009C024E0A20EB11CF601608171818281EC
:101DE00093810AC0F2E0AF0EB11CF60160817181EF
:101DF000072E000C880B990BF92DFF769F2E97FF6D
:101E000009C090958095709561957F4F8F4F9F4F3A
:101E1000F0689F2E2AE030E0A301DFD2C82EC6185A
:101E20003EC0092D853721F40F7E2AE030E01DC029
:101E3000097F8F3691F018F4883559F0BCC080378F
:101E400019F0883711F0B7C0006104FF09C00460C1
:101E500007C094FE08C0066006C028E030E005C058
:101E600020E130E002C020E132E0560107FF09C066
:101E700084E0A80EB11CF60160817181828193819A
:101E800008C0F2E0AF0EB11CF6016081718180E004
:101E900090E0A301A2D2C82EC6180F77902E96FE0E
:101EA0000BC0092D0E7FC11650F494FE0AC092FC9F
:101EB00008C0092D0E7E05C0DC2C092D03C0DC2CCA
:101EC00001C0D12E04FF0DC0FE01EC0DF11D80817B
:101ED000803311F4097E09C002FF06C0D394D39465
:101EE00004C0802F867809F0D39403FD10C000FF52
:101EF00006C01C2DD51478F4150D1D190CC0D51471
:101F000050F4B70180E290E0E9D1D394F8CFD51432
:101F100010F45D1801C0512C04FF0FC0B70180E31D
:101F200090E0DCD102FF16C001FD03C088E790E01D
:101F300002C088E590E0B7010CC0802F867851F090
:101F400001FF02C08BE201C080E207FD8DE2B70114
:101F500090E0C4D1C11630F4B70180E390E0BED167
:101F60001150F8CFCA94F301EC0DF11D8081B70137
:101F700090E0B4D1C110F6CF15C0F4E0F51550F5DE
:101F800084E0581A93FE1EC0011125C02C8523FF42
:101F900027C00CE311E0392D3071932EF8018491A4
:101FA000811121C0552009F4FCCCB70180E290E0FA
:101FB00095D15A94F7CFF7018681978123C08FEF8F
:101FC0009FEF20C0B70180E290E088D15A94511071
:101FD000F9CFDACF512CB701802F90E07FD1D6CF47
:101FE00000E411E0D8CF91108052B70190E076D193
:101FF0000F5F1F4FD3CF23E0251510F483E0C1CF2F
:10200000512CC4CF60960FB6F894DEBF0FBECDBF83
:10201000DF91CF911F910F91FF90EF90DF90CF90C4
:10202000BF90AF909F908F907F906F905F904F90F8
:102030003F902F90089597FB072E16F4009406D03A
:1020400077FD08D027D007FC05D03EF49095819508
:102050009F4F0895709561957F4F0895052E97FBCA
:1020600016F400940FD057FD05D028D007FC02D0FD
:1020700046F408C050954095309521953F4F4F4FFD
:102080005F4F089590958095709561957F4F8F4F24
:102090009F4F0895AA1BBB1B51E107C0AA1FBB1F7E
:1020A000A617B70710F0A61BB70B881F991F5A95E4
:1020B000A9F780959095BC01CD010895A1E21A2E53
:1020C000AA1BBB1BFD010DC0AA1FBB1FEE1FFF1FDC
:1020D000A217B307E407F50720F0A21BB30BE40B2C
:1020E000F50B661F771F881F991F1A9469F7609573
:1020F0007095809590959B01AC01BD01CF0108952D
:10210000283008F027E03327DA01990F311D87FDC9
:10211000916000966105710539F432602E5F3D9340
:1021200030E32A95E1F708959F3F30F0803871053C
:10213000610509F03C5F3C5F3D93913008F0806899
:10214000911DDF93CF931F930F93FF92EF92192F5F
:10215000987F9695E92F96959695E90FFF27E25679
:10216000FE4F99273327EE24FF24A701E7010590AE
:102170000894079428F4360FE71EF81E491F511DD6
:10218000660F771F881F991F0694A1F70590079483
:1021900028F4E70EF81E491F561FC11D770F881F30
:1021A000991F661F0694A1F70590079428F4F80E6E
:1021B000491F561FC71FD11D880F991F661F771F04
:1021C0000694A1F70590079420F4490F561FC71FE6
:1021D000D81F990F661F771F881F0694A9F784914F
:1021E0001095177041F0D695C79557954795F79478
:1021F000E7941A95C1F7E4E4F1E06894159015911D
:1022000035916591959105907FE27395E118F10AFA
:10221000430B560BC90BD009C0F7E10CF11E431F4D
:10222000561FC91FD01D7EF4703311F48A95E6CF76
:10223000E894015030F0080F0AF40027021708F460
:10224000202F2395022F7A3328F079E37D932A9566
:10225000E9F710C07D932A9589F6069497956795BE
:10226000379517951794E118F10A430B560BC90BD4
:10227000D00998F023957E9173957A3308F070E336
:102280007C932013B8F77E9170617D9330F0839535
:1022900071E37D9370E32A95E1F71124EF90FF90AD
:1022A0000F911F91CF91DF91992787FD9095089508
:1022B000FC010590615070400110D8F78095909511
:1022C0008E0F9F1F0895FC01615070400190011016
:1022D000D8F7809590958E0F9F1F08950F931F93A9
:1022E000CF93DF93FB01238121FD03C08FEF9FEF8D
:1022F0002CC022FF16C046815781248135814217A8
:10230000530744F4A081B1819D012F5F3F4F31837A
:1023100020838C93268137812F5F3F4F378326831D
:1023200014C08B01EC01FB010084F185E02D0995BF
:10233000892BE1F6D80116968D919C9117970196FD
:1023400017969C938E931697CE01DF91CF911F9194
:102350000F910895CF93DF93CDB7DEB7AE014B5FFA
:102360005F4FFA0161917191AF0180917E0290916E
:102370007F02D8DADF91CF9108950F931F93CF9307
:10238000DF93E0917E02F0917F02238121FF1BC049
:102390008C01D0E0C0E0F80181918F0160917E0254
:1023A00070917F02DB011896ED91FC9119978823BB
:1023B00031F00995892B79F3DFEFCFEFECCF8AE08D
:1023C0000995892B19F08FEF9FEF02C08D2F9C2F5D
:1023D000DF91CF911F910F910895FA01AA2728301C
:1023E00051F1203181F1E8946F936E7F6E5F7F4FE2
:1023F0008F4F9F4FAF4FB1E03ED0B4E03CD0670F5E
:10240000781F891F9A1FA11D680F791F8A1F911DB0
:10241000A11D6A0F711D811D911DA11D20D009F400
:1024200068943F912AE0269F11243019305D319342
:10243000DEF6CF010895462F4770405D4193B3E02B
:102440000FD0C9F7F6CF462F4F70405D4A3318F0D2
:10245000495D31FD4052419302D0A9F7EACFB4E083
:10246000A6959795879577956795BA95C9F700973B
:102470006105710508959B01AC010A2E06945795DC
:10248000479537952795BA95C9F7620F731F841F33
:0A249000951FA01D0895F894FFCFDA
:10249A00000000010000000000009F08000000008A
:1024AA000002000000007808000000001CF8008903
:1024BA0000F9E0FBE0FFA0057F038F011FA8FFFFE3
:1024CA0010840000E42E6542000000400000204114
:1024DA00000020414D50552D3630353020696E6947
:1024EA007469616C697A6174696F6E20636F6D706B
:1024FA006C65746564210A00736F6D657468696E32
:10250A006720676F65732077726F6E672E2E2E2095
:10251A00657869742070726F6772616D2E0A004D5A
:10252A0050552D36303530206779726F2066756CBC
:10253A006C2D7363616C652D72616E6765207365BE
:10254A0074210A004D50552D3630353020616363B1
:10255A00656C2066756C6C2D7363616C652D726198
:10256A006E676520736574210A004D50552D36300B
:10257A0035302063616C6962726174696F6E2063C1
:10258A006F6D706C65746564210A00256409002505
:10259A00640A002566090025660A005B494E464F13
:1025AA005D205541525420696E697469616C697A7B
:0625BA006564210A0D001A
:00000001FF
