S010000031363032434C43442E7372656335
S113000045C0000060C000005EC000005CC000008D
S11300105AC0000058C0000056C0000054C0000080
S113002052C0000050C000004EC000004CC0000090
S11300304AC0000048C0000046C0000044C00000A0
S113004042C0000040C00000CDC100003CC0000020
S11300503AC0000038C0000036C0000034C00000C0
S113006032C0000030C000002EC000002CC00000D0
S11300702AC0000028C0000026C0000024C00000E0
S113008022C0000020C000001EC0000011241FBEBA
S1130090CFEFD0E1DEBFCDBF11E0A0E0B1E0E4E1FD
S11300A0F5E000E00BBF02C007900D92AA39B1073A
S11300B0D9F721E0AAE9B1E001C01D92A43AB20740
S11300C0E1F749D125C29CCFCF93DF9300D0CDB7C0
S11300D0DEB7807F982F9C60998388608A8342E092
S11300E050E0BE016F5F7F4F8091000103D1811109
S11300F0F6CF0F900F90DF91CF910895CF93DF93B8
S113010000D000D0CDB7DEB7982F907F292F2C6078
S1130110298398609A8320E1829FC0011124982F3B
S11301209C609B8388608C8344E050E0BE016F5FD9
S11301307F4F80910001DED08111F6CF0F900F9098
S11301400F900F90DF91CF91089594D02FEF89E60F
S113015098E1215080409040E1F700C000008DE319
S113016091E0A6D180E3B0DF8FE19EE40197F1F73F
S113017000C0000080E3A8DF8FE891E00197F1F769
S113018000C0000080E3A0DF8FE891E00197F1F761
S113019000C0000080E298DF8FE891E00197F1F75A
S11301A000C0000088E2AADF87EC90E00197F1F735
S11301B000C0000088E0A2DF87EC90E00197F1F72F
S11301C000C0000081E09ADF8FED9EE20197F1F715
S11301D000C0000086E092DF87EC90E00197F1F721
S11301E000C000008CE08ADF87EC90E00197F1F713
S11301F000C0000084E591E05BC10895CF93DF93D4
S113020000D000D0CDB7DEB7982F907F292F2D6076
S1130210298399609A8320E1829FC0011124982F39
S11302209D609B8389608C8344E050E0BE016F5FD6
S11302307F4F809100015ED08111F6CF0F900F9017
S11302400F900F90DF91CF91089590E4899F600DF6
S11302501124862F806852CF0895CF93DF93EA014B
S1130260F4DF02C02196CADF88818111FBCFDF91C0
S1130270CF91089588E4809370000895E4E7F0E056
S1130280108294EA9083909174009923E4F79091FA
S11302907100987F983091F48093730084E8809380
S11302A07400809174008823E4F780917100887F42
S11302B0883131F0803431F480E0089581E008958C
S11302C080E0089581E008958093730084E880932A
S11302D07400809174008823E4F780917100887F12
S11302E0883211F081E0089580E0089584E98093D4
S11302F074000895DF92EF92FF920F931F93CF93B0
S1130300DF937B018A01BADFD82E811116C0C0E0C9
S1130310D0E00EC0F701EC0FFD1F8081D5DF811105
S11303200FC08FE99FE00197F1F700C0000021960C
S1130330C017D10778F3DADF05C0DD24D39402C0F7
S1130340DD24D3948D2DDF91CF911F910F91FF90D8
S1130350EF90DF900895CF93DF93CDB7DEB7A097EA
S11303600FB6F894DEBF0FBECDBF88D0EEDE8DE0B1
S1130370EDE1F1E0DE01119601900D928A95E1F72D
S1130380FE013E9683E0DF011D928A95E9F78AE03B
S1130390EDE2F1E0DE01519601900D928A95E1F7CC
S11303A0FE017B9686E0DF011D928A95E9F780E6DF
S11303B091E07ED0AE014F5F5F4F60E080E04DDFA3
S11303C0AE014F5E5F4F60E081E047DF8CE791E074
S11303D06FD0FFCF5D9BFECF8CB908955F9BFECF9E
S11303E08CB108951F920F920FB60F9211242F9380
S11303F03F934F935F938F939F938CB190ED980F9E
S11304009A3058F520919A0130919B01232BC1F029
S113041020919C0130919D01A901440F551F220F89
S1130420331F220F331F220F331F240F351F280FB2
S1130430311D2053310930939D0120939C0113C039
S113044090E0C09790939D0180939C0181E090E09F
S113045090939B0180939A0106C08D3021F41092F1
S11304609B0110929A019F918F915F914F913F91BF
S11304702F910F900FBE0F901F901895109290001F
S113048080E189B98BB182608BB9E5E9F0E08081C4
S1130490866080838AB188618AB9EEE9F1E081E0FF
S11304A091E0918380838FE091E093838283089528
S11304B00F931F93CF93DF93E091A001F091A101DB
S11304C0238121FF1BC08C01D0E0C0E0F8018191A1
S11304D08F016091A0017091A101DB011896ED914B
S11304E0FC911997882331F00995892B79F3DFEF73
S11304F0CFEFECCF8AE00995892B19F08FEF9FEFAE
S113050002C08D2F9C2FDF91CF911F910F910895E1
S1070510F894FFCF89
S11305144E00000001000000000000EE0100000095
S113052400000200000000EA010000000048656CBD
S11305346C6F20576F726C64210000000041546D8D
S113054465676131323800000000000000426566CE
S11305546F726520496E697469616C697A652E2EBF
S11305642E200D00436F6E6E656374204F6B0D0077
S11305744265666F726520737472696E6720747263
S1130584616E736665722E2E2E2E0D00737472695D
S11305946E67207472616E7366657220636F6D702A
S10D05A46C6574652E2E2E2E0D00DA
S9030000FC
