S01000005457495F746573742E7372656301
S113000045C0000058C0000056C0000054C00000A5
S113001052C0000050C000004EC000004CC00000A0
S11300204AC0000048C0000046C0000044C00000B0
S113003042C0000040C000003EC000003CC00000C0
S11300403AC0000038C0000036C0000034C00000D0
S113005032C0000030C000002EC000002CC00000E0
S11300602AC0000028C0000026C0000024C00000F0
S113007022C0000020C000001EC000001CC0000000
S11300801AC0000018C0000016C0000011241FBED2
S1130090CFEFD0E1DEBFCDBF11E0A0E0B1E0E6E6F6
S11300A0F1E000E00BBF02C007900D92AE32B10741
S11300B0D9F702D056C0A4CF87E690E045D010D03F
S11300C067E285E513D02FEF81EE94E02150804064
S11300D09040E1F700C0000080E091E029D0F0CF2B
S11300E08CE08093700010927100089594EA9093CC
S11300F07400909174009923E4F7660F6093730081
S113010094E890937400909174009923E4F7809399
S1130110730084E880937400809174008823E4F76A
S113012084E98093740008955D9BFECF8CB9089593
S1130130CF93DF93EC0102C02196F6DF8881811111
S1130140FBCFDF91CF91089589B9909390008AB144
S113015088618AB98BE291E0EBDF83E191E0E8CF3B
S10901600895F894FFCF9E
S113016664617461207472616E736D69747465641C
S11301762E0A005B494E464F5D2055415254206974
S11101866E697469616C697A6564210A0D0002
S9030000FC
